{
  "contractName": "RockPaperScissor",
  "abi": [
    {
      "constant": true,
      "inputs": [],
      "name": "isRunning",
      "outputs": [
        {
          "name": "",
          "type": "bool"
        }
      ],
      "payable": false,
      "stateMutability": "view",
      "type": "function"
    },
    {
      "constant": true,
      "inputs": [],
      "name": "owner",
      "outputs": [
        {
          "name": "",
          "type": "address"
        }
      ],
      "payable": false,
      "stateMutability": "view",
      "type": "function"
    },
    {
      "constant": true,
      "inputs": [
        {
          "name": "",
          "type": "bytes32"
        }
      ],
      "name": "gameList",
      "outputs": [
        {
          "name": "player1",
          "type": "address"
        },
        {
          "name": "player2",
          "type": "address"
        },
        {
          "name": "winner",
          "type": "address"
        },
        {
          "name": "player1SecretCode",
          "type": "bytes32"
        },
        {
          "name": "player2SecretCode",
          "type": "bytes32"
        },
        {
          "name": "amount",
          "type": "uint256"
        },
        {
          "name": "stage",
          "type": "uint8"
        }
      ],
      "payable": false,
      "stateMutability": "view",
      "type": "function"
    },
    {
      "inputs": [
        {
          "name": "_running",
          "type": "bool"
        }
      ],
      "payable": false,
      "stateMutability": "nonpayable",
      "type": "constructor"
    },
    {
      "anonymous": false,
      "inputs": [
        {
          "indexed": true,
          "name": "gameId",
          "type": "bytes32"
        },
        {
          "indexed": false,
          "name": "secretCode",
          "type": "bytes32"
        },
        {
          "indexed": true,
          "name": "amount",
          "type": "uint256"
        }
      ],
      "name": "LogChallangeCreated",
      "type": "event"
    },
    {
      "anonymous": false,
      "inputs": [
        {
          "indexed": true,
          "name": "gameId",
          "type": "bytes32"
        },
        {
          "indexed": false,
          "name": "secretCode",
          "type": "bytes32"
        }
      ],
      "name": "LogChallangeAccepted",
      "type": "event"
    },
    {
      "anonymous": false,
      "inputs": [
        {
          "indexed": true,
          "name": "gameId",
          "type": "bytes32"
        },
        {
          "indexed": true,
          "name": "player",
          "type": "address"
        },
        {
          "indexed": false,
          "name": "move",
          "type": "uint256"
        }
      ],
      "name": "LogPlayerMove",
      "type": "event"
    },
    {
      "anonymous": false,
      "inputs": [
        {
          "indexed": true,
          "name": "gameId",
          "type": "bytes32"
        },
        {
          "indexed": false,
          "name": "result",
          "type": "string"
        },
        {
          "indexed": false,
          "name": "winner",
          "type": "address"
        }
      ],
      "name": "LogResult",
      "type": "event"
    },
    {
      "anonymous": false,
      "inputs": [
        {
          "indexed": true,
          "name": "owner",
          "type": "address"
        }
      ],
      "name": "LogPaused",
      "type": "event"
    },
    {
      "anonymous": false,
      "inputs": [
        {
          "indexed": true,
          "name": "owner",
          "type": "address"
        }
      ],
      "name": "LogResumed",
      "type": "event"
    },
    {
      "constant": false,
      "inputs": [],
      "name": "pause",
      "outputs": [
        {
          "name": "",
          "type": "bool"
        }
      ],
      "payable": false,
      "stateMutability": "nonpayable",
      "type": "function"
    },
    {
      "constant": false,
      "inputs": [],
      "name": "resume",
      "outputs": [
        {
          "name": "",
          "type": "bool"
        }
      ],
      "payable": false,
      "stateMutability": "nonpayable",
      "type": "function"
    },
    {
      "constant": false,
      "inputs": [
        {
          "name": "_secretCode",
          "type": "bytes32"
        }
      ],
      "name": "createChallange",
      "outputs": [
        {
          "name": "",
          "type": "bool"
        }
      ],
      "payable": true,
      "stateMutability": "payable",
      "type": "function"
    },
    {
      "constant": false,
      "inputs": [
        {
          "name": "_gameId",
          "type": "bytes32"
        },
        {
          "name": "_secretCode",
          "type": "bytes32"
        }
      ],
      "name": "acceptChallenge",
      "outputs": [
        {
          "name": "",
          "type": "bool"
        }
      ],
      "payable": true,
      "stateMutability": "payable",
      "type": "function"
    },
    {
      "constant": false,
      "inputs": [
        {
          "name": "_gameId",
          "type": "bytes32"
        },
        {
          "name": "_secretCode",
          "type": "bytes32"
        }
      ],
      "name": "resetGame",
      "outputs": [
        {
          "name": "",
          "type": "bool"
        }
      ],
      "payable": false,
      "stateMutability": "nonpayable",
      "type": "function"
    },
    {
      "constant": false,
      "inputs": [
        {
          "name": "_gameId",
          "type": "bytes32"
        },
        {
          "name": "_password",
          "type": "string"
        },
        {
          "name": "_move",
          "type": "uint256"
        }
      ],
      "name": "revealMove",
      "outputs": [
        {
          "name": "",
          "type": "bool"
        }
      ],
      "payable": false,
      "stateMutability": "nonpayable",
      "type": "function"
    },
    {
      "constant": false,
      "inputs": [
        {
          "name": "_gameId",
          "type": "bytes32"
        }
      ],
      "name": "widrawAmount",
      "outputs": [
        {
          "name": "",
          "type": "bool"
        }
      ],
      "payable": false,
      "stateMutability": "nonpayable",
      "type": "function"
    },
    {
      "constant": true,
      "inputs": [
        {
          "name": "_gameId",
          "type": "bytes32"
        },
        {
          "name": "_player",
          "type": "address"
        }
      ],
      "name": "getPlayerData",
      "outputs": [
        {
          "name": "move_",
          "type": "uint256"
        },
        {
          "name": "hasPlayed_",
          "type": "bool"
        }
      ],
      "payable": false,
      "stateMutability": "view",
      "type": "function"
    }
  ],
  "bytecode": "0x608060405234801561001057600080fd5b50604051602080611dd78339810180604052810190808051906020019092919050505080600060146101000a81548160ff021916908315150217905550336000806101000a81548173ffffffffffffffffffffffffffffffffffffffff021916908373ffffffffffffffffffffffffffffffffffffffff16021790555050611d3a8061009d6000396000f3006080604052600436106100af576000357c0100000000000000000000000000000000000000000000000000000000900463ffffffff168063046f7da2146100b45780631faf9084146100e35780632014e5d114610153578063297b06d7146101825780632e0ca446146101be5780638456cb59146102155780638da5cb5b146102445780639b08fb4a1461029b578063c0a10e9c146103ac578063cc72167e146103f5578063fdbc0eb71461048e575b600080fd5b3480156100c057600080fd5b506100c96104d8565b604051808215151515815260200191505060405180910390f35b3480156100ef57600080fd5b506101326004803603810190808035600019169060200190929190803573ffffffffffffffffffffffffffffffffffffffff1690602001909291905050506105b7565b60405180838152602001821515151581526020019250505060405180910390f35b34801561015f57600080fd5b50610168610690565b604051808215151515815260200191505060405180910390f35b6101a460048036038101908080356000191690602001909291905050506106a3565b604051808215151515815260200191505060405180910390f35b3480156101ca57600080fd5b506101fb60048036038101908080356000191690602001909291908035600019169060200190929190505050610a63565b604051808215151515815260200191505060405180910390f35b34801561022157600080fd5b5061022a610c60565b604051808215151515815260200191505060405180910390f35b34801561025057600080fd5b50610259610d58565b604051808273ffffffffffffffffffffffffffffffffffffffff1673ffffffffffffffffffffffffffffffffffffffff16815260200191505060405180910390f35b3480156102a757600080fd5b506102ca6004803603810190808035600019169060200190929190505050610d7d565b604051808873ffffffffffffffffffffffffffffffffffffffff1673ffffffffffffffffffffffffffffffffffffffff1681526020018773ffffffffffffffffffffffffffffffffffffffff1673ffffffffffffffffffffffffffffffffffffffff1681526020018673ffffffffffffffffffffffffffffffffffffffff1673ffffffffffffffffffffffffffffffffffffffff1681526020018560001916600019168152602001846000191660001916815260200183815260200182600381111561039257fe5b60ff16815260200197505050505050505060405180910390f35b3480156103b857600080fd5b506103db6004803603810190808035600019169060200190929190505050610e2c565b604051808215151515815260200191505060405180910390f35b34801561040157600080fd5b506104746004803603810190808035600019169060200190929190803590602001908201803590602001908080601f016020809104026020016040519081016040528093929190818152602001838380828437820191505050505050919291929080359060200190929190505050610f4b565b604051808215151515815260200191505060405180910390f35b6104be600480360381019080803560001916906020019092919080356000191690602001909291905050506112ab565b604051808215151515815260200191505060405180910390f35b60008060009054906101000a900473ffffffffffffffffffffffffffffffffffffffff1673ffffffffffffffffffffffffffffffffffffffff163373ffffffffffffffffffffffffffffffffffffffff1614151561053557600080fd5b6000809054906101000a900473ffffffffffffffffffffffffffffffffffffffff1673ffffffffffffffffffffffffffffffffffffffff167f29560ba70e3537fccc61029db8de08e30408a3f131625765c51e3e972a7867ad60405160405180910390a26001600060146101000a81548160ff02191690831515021790555090565b60008060016000856000191660001916815260200190815260200160002060070160008473ffffffffffffffffffffffffffffffffffffffff1673ffffffffffffffffffffffffffffffffffffffff16815260200190815260200160002060000154915060016000856000191660001916815260200190815260200160002060070160008473ffffffffffffffffffffffffffffffffffffffff1673ffffffffffffffffffffffffffffffffffffffff16815260200190815260200160002060010160009054906101000a900460ff1690509250929050565b600060149054906101000a900460ff1681565b600080600060149054906101000a900460ff1615156106c157600080fd5b60007f0100000000000000000000000000000000000000000000000000000000000000028360006020811015156106f457fe5b1a7f0100000000000000000000000000000000000000000000000000000000000000027effffffffffffffffffffffffffffffffffffffffffffffffffffffffffffff19161415151561074657600080fd5b3343604051808373ffffffffffffffffffffffffffffffffffffffff1673ffffffffffffffffffffffffffffffffffffffff166c01000000000000000000000000028152601401828152602001925050506040518091039020905060e0604051908101604052803373ffffffffffffffffffffffffffffffffffffffff168152602001600073ffffffffffffffffffffffffffffffffffffffff168152602001600073ffffffffffffffffffffffffffffffffffffffff16815260200184600019168152602001846000191681526020013481526020016000600381111561082a57fe5b81525060016000836000191660001916815260200190815260200160002060008201518160000160006101000a81548173ffffffffffffffffffffffffffffffffffffffff021916908373ffffffffffffffffffffffffffffffffffffffff16021790555060208201518160010160006101000a81548173ffffffffffffffffffffffffffffffffffffffff021916908373ffffffffffffffffffffffffffffffffffffffff16021790555060408201518160020160006101000a81548173ffffffffffffffffffffffffffffffffffffffff021916908373ffffffffffffffffffffffffffffffffffffffff160217905550606082015181600301906000191690556080820151816004019060001916905560a0820151816005015560c08201518160060160006101000a81548160ff0219169083600381111561096b57fe5b02179055509050506040805190810160405280600081526020016000151581525060016000836000191660001916815260200190815260200160002060070160003373ffffffffffffffffffffffffffffffffffffffff1673ffffffffffffffffffffffffffffffffffffffff1681526020019081526020016000206000820151816000015560208201518160010160006101000a81548160ff0219169083151502179055509050503481600019167f247fb559131ab27c2f24a4c183d9ab71690659c0db0603eb171902ba9a5f3ec68560405180826000191660001916815260200191505060405180910390a36001915050919050565b600080600060149054906101000a900460ff161515610a8157600080fd5b6001600085600019166000191681526020019081526020016000209050610aa7846115bb565b1515610ab257600080fd5b610abc843361163f565b1515610ac757600080fd5b8060000160009054906101000a900473ffffffffffffffffffffffffffffffffffffffff1673ffffffffffffffffffffffffffffffffffffffff163373ffffffffffffffffffffffffffffffffffffffff161415610b315782816003018160001916905550610b3f565b828160040181600019169055505b60008160070160003373ffffffffffffffffffffffffffffffffffffffff1673ffffffffffffffffffffffffffffffffffffffff1681526020019081526020016000206000018190555060008160070160003373ffffffffffffffffffffffffffffffffffffffff1673ffffffffffffffffffffffffffffffffffffffff16815260200190815260200160002060010160006101000a81548160ff02191690831515021790555060008160060160006101000a81548160ff02191690836003811115610c0757fe5b0217905550806005015484600019167f247fb559131ab27c2f24a4c183d9ab71690659c0db0603eb171902ba9a5f3ec68560405180826000191660001916815260200191505060405180910390a3600191505092915050565b60008060149054906101000a900460ff161515610c7c57600080fd5b6000809054906101000a900473ffffffffffffffffffffffffffffffffffffffff1673ffffffffffffffffffffffffffffffffffffffff163373ffffffffffffffffffffffffffffffffffffffff16141515610cd757600080fd5b6000809054906101000a900473ffffffffffffffffffffffffffffffffffffffff1673ffffffffffffffffffffffffffffffffffffffff167fce3af5a3fdaee3c4327c1c434ea1d2186d7a9495f005d2a876dca182bd14571460405160405180910390a260008060146101000a81548160ff02191690831515021790555090565b6000809054906101000a900473ffffffffffffffffffffffffffffffffffffffff1681565b60016020528060005260406000206000915090508060000160009054906101000a900473ffffffffffffffffffffffffffffffffffffffff16908060010160009054906101000a900473ffffffffffffffffffffffffffffffffffffffff16908060020160009054906101000a900473ffffffffffffffffffffffffffffffffffffffff16908060030154908060040154908060050154908060060160009054906101000a900460ff16905087565b600080600060149054906101000a900460ff161515610e4a57600080fd5b6001600084600019166000191681526020019081526020016000209050600380811115610e7357fe5b8160060160009054906101000a900460ff166003811115610e9057fe5b141515610e9c57600080fd5b3373ffffffffffffffffffffffffffffffffffffffff168160020160009054906101000a900473ffffffffffffffffffffffffffffffffffffffff1673ffffffffffffffffffffffffffffffffffffffff16141515610efa57600080fd5b3373ffffffffffffffffffffffffffffffffffffffff166108fc82600501549081150290604051600060405180830381858888f19350505050158015610f44573d6000803e3d6000fd5b5050919050565b60008060008060149054906101000a900460ff161515610f6a57600080fd5b610fdf863387876040518083805190602001908083835b602083101515610fa65780518252602082019150602081019050602083039250610f81565b6001836020036101000a0380198251168184511680821785525050505050509050018281526020019250505060405180910390206117cf565b1515610fea57600080fd5b60016000876000191660001916815260200190815260200160002091508160070160003373ffffffffffffffffffffffffffffffffffffffff1673ffffffffffffffffffffffffffffffffffffffff168152602001908152602001600020905083816000018190555060018160010160006101000a81548160ff021916908315150217905550611079866118d8565b1561124a57611087866119f4565b1561117c5760038260060160006101000a81548160ff021916908360038111156110ad57fe5b021790555085600019167f3767c1adebd463943fdbc852b8104513004d6f7f00c602716e286129031b1d408360020160009054906101000a900473ffffffffffffffffffffffffffffffffffffffff1660405180806020018373ffffffffffffffffffffffffffffffffffffffff1673ffffffffffffffffffffffffffffffffffffffff168152602001828103825260068152602001807f77696e6e657200000000000000000000000000000000000000000000000000008152506020019250505060405180910390a2611245565b60028260060160006101000a81548160ff0219169083600381111561119d57fe5b021790555085600019167f3767c1adebd463943fdbc852b8104513004d6f7f00c602716e286129031b1d40600060405180806020018373ffffffffffffffffffffffffffffffffffffffff1673ffffffffffffffffffffffffffffffffffffffff168152602001828103825260048152602001807f64726177000000000000000000000000000000000000000000000000000000008152506020019250505060405180910390a25b61129e565b3373ffffffffffffffffffffffffffffffffffffffff1686600019167ff4738150326cbc05718419d11165fbfa93813c17c4f9a73757a72d9fd1fb6e9b866040518082815260200191505060405180910390a35b6001925050509392505050565b600080600060149054906101000a900460ff1615156112c957600080fd5b60007f0100000000000000000000000000000000000000000000000000000000000000028360006020811015156112fc57fe5b1a7f0100000000000000000000000000000000000000000000000000000000000000027effffffffffffffffffffffffffffffffffffffffffffffffffffffffffffff19161415151561134e57600080fd5b60016000856000191660001916815260200190815260200160002090506000600381111561137857fe5b8160060160009054906101000a900460ff16600381111561139557fe5b1415156113a157600080fd5b6113ab843361163f565b1561145c5760008160070160003373ffffffffffffffffffffffffffffffffffffffff1673ffffffffffffffffffffffffffffffffffffffff1681526020019081526020016000206000018190555060008160070160003373ffffffffffffffffffffffffffffffffffffffff1673ffffffffffffffffffffffffffffffffffffffff16815260200190815260200160002060010160006101000a81548160ff021916908315150217905550611539565b80600501543414151561146e57600080fd5b338160010160006101000a81548173ffffffffffffffffffffffffffffffffffffffff021916908373ffffffffffffffffffffffffffffffffffffffff160217905550604080519081016040528060008152602001600015158152508160070160003373ffffffffffffffffffffffffffffffffffffffff1673ffffffffffffffffffffffffffffffffffffffff1681526020019081526020016000206000820151816000015560208201518160010160006101000a81548160ff0219169083151502179055509050505b60018160060160006101000a81548160ff0219169083600381111561155a57fe5b02179055508281600401816000191690555083600019167fc56f8787ebf9966e1bcddf43a70a1248e82744c1a96a0ab46b19377b078059628460405180826000191660001916815260200191505060405180910390a2600191505092915050565b6000806001600084600019166000191681526020019081526020016000209050600260038111156115e857fe5b8160060160009054906101000a900460ff16600381111561160557fe5b1480611637575060038081111561161857fe5b8160060160009054906101000a900460ff16600381111561163557fe5b145b915050919050565b6000806001600085600019166000191681526020019081526020016000209050600073ffffffffffffffffffffffffffffffffffffffff168160000160009054906101000a900473ffffffffffffffffffffffffffffffffffffffff1673ffffffffffffffffffffffffffffffffffffffff16141580156117115750600073ffffffffffffffffffffffffffffffffffffffff168160010160009054906101000a900473ffffffffffffffffffffffffffffffffffffffff1673ffffffffffffffffffffffffffffffffffffffff1614155b80156117c657508060000160009054906101000a900473ffffffffffffffffffffffffffffffffffffffff1673ffffffffffffffffffffffffffffffffffffffff168373ffffffffffffffffffffffffffffffffffffffff1614806117c557508060010160009054906101000a900473ffffffffffffffffffffffffffffffffffffffff1673ffffffffffffffffffffffffffffffffffffffff168373ffffffffffffffffffffffffffffffffffffffff16145b5b91505092915050565b60008060016000866000191660001916815260200190815260200160002090508060000160009054906101000a900473ffffffffffffffffffffffffffffffffffffffff1673ffffffffffffffffffffffffffffffffffffffff168473ffffffffffffffffffffffffffffffffffffffff16141561185d5782600019168160030154600019161491506118d0565b8060010160009054906101000a900473ffffffffffffffffffffffffffffffffffffffff1673ffffffffffffffffffffffffffffffffffffffff168473ffffffffffffffffffffffffffffffffffffffff1614156118cb5782600019168160040154600019161491506118d0565b600091505b509392505050565b60008060016000846000191660001916815260200190815260200160002090508060070160008260000160009054906101000a900473ffffffffffffffffffffffffffffffffffffffff1673ffffffffffffffffffffffffffffffffffffffff1673ffffffffffffffffffffffffffffffffffffffff16815260200190815260200160002060010160009054906101000a900460ff1680156119ec57508060070160008260010160009054906101000a900473ffffffffffffffffffffffffffffffffffffffff1673ffffffffffffffffffffffffffffffffffffffff1673ffffffffffffffffffffffffffffffffffffffff16815260200190815260200160002060010160009054906101000a900460ff165b915050919050565b60008060008060016000866000191660001916815260200190815260200160002092508260070160008460000160009054906101000a900473ffffffffffffffffffffffffffffffffffffffff1673ffffffffffffffffffffffffffffffffffffffff1673ffffffffffffffffffffffffffffffffffffffff16815260200190815260200160002091508260070160008460010160009054906101000a900473ffffffffffffffffffffffffffffffffffffffff1673ffffffffffffffffffffffffffffffffffffffff1673ffffffffffffffffffffffffffffffffffffffff1681526020019081526020016000209050806000015482600001541415611afe5760009350611d06565b600060028360000154811515611b1057fe5b06148015611b2e5750600060028260000154811515611b2b57fe5b06145b15611c1c57806000015482600001541115611baf578260000160009054906101000a900473ffffffffffffffffffffffffffffffffffffffff168360020160006101000a81548173ffffffffffffffffffffffffffffffffffffffff021916908373ffffffffffffffffffffffffffffffffffffffff160217905550611c17565b8260010160009054906101000a900473ffffffffffffffffffffffffffffffffffffffff168360020160006101000a81548173ffffffffffffffffffffffffffffffffffffffff021916908373ffffffffffffffffffffffffffffffffffffffff1602179055505b611d01565b806000015482600001541115611c98578260010160009054906101000a900473ffffffffffffffffffffffffffffffffffffffff168360020160006101000a81548173ffffffffffffffffffffffffffffffffffffffff021916908373ffffffffffffffffffffffffffffffffffffffff160217905550611d00565b8260000160009054906101000a900473ffffffffffffffffffffffffffffffffffffffff168360020160006101000a81548173ffffffffffffffffffffffffffffffffffffffff021916908373ffffffffffffffffffffffffffffffffffffffff1602179055505b5b600193505b5050509190505600a165627a7a7230582007ad516af0288f5139697381a078b5da37157bdaf250b506233aa9e31568b7990029",
  "source": "pragma solidity ^ 0.4.21;\n\ncontract RockPaperScissor {\n  address public owner;\n  bool public isRunning;\n\n  struct PlayerData {\n    uint move;\n    bool hasPlayed;\n  }\n\n  enum GameStage {\n    Initial,\n    Palying,\n    Draw,\n    Stop\n  }\n\n  struct GameData {\n    /*\n     * winner address can be use for multiple purpose. In that case player1 and\n     * player2 addresses not needed Not going to that level of optimisation in\n     * this version\n     */\n    address player1;\n    address player2;\n    address winner;\n    bytes32 player1SecretCode;\n    bytes32 player2SecretCode;\n    uint amount;\n    GameStage stage;\n    mapping(address => PlayerData) playerData;\n  }\n\n  mapping(bytes32 => GameData) public gameList;\n\n  event LogChallangeCreated(bytes32 indexed gameId, bytes32 secretCode,\n                            uint indexed amount);\n  event LogChallangeAccepted(bytes32 indexed gameId, bytes32 secretCode);\n  event LogPlayerMove(bytes32 indexed gameId, address indexed player,\n                      uint move);\n  event LogResult(bytes32 indexed gameId, string result, address winner);\n  event LogPaused(address indexed owner);\n  event LogResumed(address indexed owner);\n\n  constructor(bool _running) public {\n    isRunning = _running;\n    owner = msg.sender;\n  }\n\n  /*\n   *Modifier: onlyIfRunning\n   *Allow owner to controll all games with single flag.\n   */\n  modifier onlyIfRunning {\n    require(isRunning);\n    _;\n  }\n\n  /*\n   *Function: pause: This function is use to halt all games operation.\n   */\n  function pause() public onlyIfRunning returns(bool) {\n    require(msg.sender == owner);\n    emit LogPaused(owner);\n    isRunning = false;\n  }\n\n  /*\n   *Function: resume: This function is use to resume all games operations.\n   */\n  function resume() public returns(bool) {\n    require(msg.sender == owner);\n    emit LogResumed(owner);\n    isRunning = true;\n  }\n\n  function createChallange(bytes32 _secretCode) public onlyIfRunning payable\n  returns(bool) {\n    require(_secretCode[0] != 0);\n    bytes32 gameId = keccak256(msg.sender, block.number);\n    gameList[gameId] =\n        GameData(msg.sender, address(0x00), address(0x00), _secretCode,\n                 _secretCode, msg.value, GameStage.Initial);\n    gameList[gameId].playerData[msg.sender] = PlayerData(0, false);\n    emit LogChallangeCreated(gameId, _secretCode, msg.value);\n    return true;\n  }\n\n  function acceptChallenge(bytes32 _gameId,\n                           bytes32 _secretCode) public onlyIfRunning payable\n  returns(bool) {\n    require(_secretCode[0] != 0);\n    GameData storage gameData = gameList[_gameId];\n    require(gameData.stage == GameStage.Initial);\n    if (isPlayervalid(_gameId, msg.sender)) {\n      // Player already exist so it is old game\n      gameData.playerData[msg.sender].move = 0;\n      gameData.playerData[msg.sender].hasPlayed = false;\n    } else {\n      // Its new game.\n      require(msg.value == gameData.amount);\n      gameData.player2 = msg.sender;\n      gameData.playerData[msg.sender] = PlayerData(0, false);\n    }\n    gameData.stage = GameStage.Palying;\n    gameData.player2SecretCode = _secretCode;\n    emit LogChallangeAccepted(_gameId, _secretCode);\n    return true;\n  }\n\n  function isStageValid(bytes32 _gameId) private view returns(bool) {\n    GameData storage gameData = gameList[_gameId];\n    return ((gameData.stage == GameStage.Draw) ||\n            (gameData.stage == GameStage.Stop));\n  }\n\n  function isPlayervalid(bytes32 _gameId, address player) private view returns(\n      bool) {\n    GameData storage gameData = gameList[_gameId];\n    return (gameData.player1 != address(0x00) &&\n            gameData.player2 != address(0x00) &&\n            ((player == gameData.player1) || (player == gameData.player2)));\n  }\n\n  function resetGame(bytes32 _gameId, bytes32 _secretCode) public onlyIfRunning\n  returns(bool) {\n    GameData storage gameData = gameList[_gameId];\n    require(isStageValid(_gameId));\n    require(isPlayervalid(_gameId, msg.sender));\n    if (msg.sender == gameData.player1)\n      gameData.player1SecretCode = _secretCode;\n    else\n      gameData.player2SecretCode = _secretCode;\n\n    gameData.playerData[msg.sender].move = 0;\n    gameData.playerData[msg.sender].hasPlayed = false;\n\n    gameData.stage = GameStage.Initial;\n\n    emit LogChallangeCreated(_gameId, _secretCode, gameData.amount);\n\n    return true;\n  }\n\n  function isSecretCodeMatched(bytes32 _gameId, address player,\n                               bytes32 _secretCode) private view\n  returns(bool) {\n    GameData storage gameData = gameList[_gameId];\n    if (player == gameData.player1)\n      return (gameData.player1SecretCode == _secretCode);\n    else if (player == gameData.player2)\n      return (gameData.player2SecretCode == _secretCode);\n    else\n      return false;\n  }\n\n  function hasBothPlayerPlayed(bytes32 _gameId) private view returns(bool) {\n    GameData storage gameData = gameList[_gameId];\n    return ((gameData.playerData[gameData.player1].hasPlayed) &&\n            (gameData.playerData[gameData.player2].hasPlayed));\n  }\n\n  function checkWinner(bytes32 _gameId) private returns(bool) {\n    GameData storage gameData = gameList[_gameId];\n    PlayerData storage player1Data = gameData.playerData[gameData.player1];\n    PlayerData storage player2Data = gameData.playerData[gameData.player2];\n\n    if (player1Data.move == player2Data.move)\n      return false; // It is draw.\n\n    if ((player1Data.move % 2 == 0) && (player2Data.move % 2 == 0)) {\n      // Both even then bigger is the winner\n      if (player1Data.move > player2Data.move) {\n        gameData.winner = gameData.player1;\n      } else {\n        gameData.winner = gameData.player2;\n      }\n    } else {\n      // If odd and even the smaller is the winner\n      if (player1Data.move > player2Data.move) {\n        gameData.winner = gameData.player2;\n      } else {\n        gameData.winner = gameData.player1;\n      }\n    }\n    return true;\n  }\n\n  function revealMove(bytes32 _gameId, string _password,\n                      uint _move) public onlyIfRunning\n  returns(bool) {\n    require(\n        isSecretCodeMatched(_gameId, msg.sender, keccak256(_password, _move)));\n    GameData storage gameData = gameList[_gameId];\n    PlayerData storage playerData = gameData.playerData[msg.sender];\n    playerData.move = _move;\n    playerData.hasPlayed = true;\n    if (hasBothPlayerPlayed(_gameId)) {\n      if (checkWinner(_gameId)) {\n        gameData.stage = GameStage.Stop;\n        emit LogResult(_gameId, \"winner\", gameData.winner);\n      } else {\n        gameData.stage = GameStage.Draw;\n        emit LogResult(_gameId, \"draw\", address(0x00));\n      }\n    } else {\n      // Inform other player about move\n      emit LogPlayerMove(_gameId, msg.sender, _move);\n    }\n    return true;\n  }\n\n  function widrawAmount(bytes32 _gameId) public onlyIfRunning returns(bool) {\n    GameData storage gameData = gameList[_gameId];\n    require(gameData.stage ==\n            GameStage.Stop); // Money can only be widraw if match completed\n    require(gameData.winner == msg.sender);\n    msg.sender.transfer(gameData.amount);\n  }\n\n  function getPlayerData(bytes32 _gameId, address _player) public view returns(\n      uint move_, bool hasPlayed_) {\n    move_ = gameList[_gameId].playerData[_player].move;\n    hasPlayed_ = gameList[_gameId].playerData[_player].hasPlayed;\n  }\n}\n",
  "sourcePath": "/home/vibhor/ChainSkills/b9labs/Projects/RockPaperScissors/contracts/RockPaperScissor.sol",
  "compiler": {
    "name": "solc",
    "version": "0.4.23+commit.124ca40d.Emscripten.clang"
  },
  "schemaVersion": "2.0.0",
  "updatedAt": "2018-05-05T09:20:37.761Z"
}